S017000053414D4537302D4C43442D455854322E7372656330
S214400000182D40205D1540005915400059154000F8
S2144000105915400059154000591540000000000091
S21440002000000000000000000000000059154000DD
S2144000305915400000000000591540005915400071
S21440004059154000591540005915400059154000B3
S21440005059154000591540005915400059154000A3
S2144000605915400000000000A9104000BD10400097
S214400070D110400059154000591540005915400010
S214400080E5104000F9104000591540005915400051
S2144000905915400059154000591540005915400063
S2144000A05915400059154000591540005915400053
S2144000B05915400059154000591540005915400043
S2144000C05915400059154000591540005915400033
S2144000D0000000005915400000000000591540007F
S2144000E05915400059154000591540005915400013
S2144000F05915400059154000591540005915400003
S21440010059154000591540005915400059154000F2
S21440011059154000000000000000000000000000EC
S21440012059154000591540005915400059154000D2
S2144001305915400000000000591540005915400070
S21440014010B5054C237833B9044B13B10448AFF3CC
S21440015000800123237010BD6C0840200000000082
S21440016048C64000084B10B51BB108490848AFF3D5
S21440017000800848036803B910BD074B002BFBD02E
S214400180BDE81040184700BF00000000700840203F
S21440019048C6400048C640000000000010B5104861
S2144001A0104B98473E2100200F4B98470F4CA047D6
S2144001B00028FCD00E4B98470E4A0F4B9A620F4CC5
S2144001C0A0470028FCD002200D4B984700200D4B3E
S2144001D098470D4B98470248024B984710BD00BFC2
S2144001E000A3E11149174000B1114000051240003C
S2144001F015124000013F182000060E402512400010
S2144002000D114000491140003916400010B5044613
S214400210104B984780232360636843F00103636074
S214400220636843F010036360636823F08003636091
S21440023000212046084B9847636823F0020363601A
S214400240636823F00403636000212046034B98470D
S21440025010BD00BF89124000B5124000CD124000CC
S2144002602DE9F04104460D46164615491846154BED
S2144002709847074601231A4629682046DFF85C80DF
S214400280C0470022296820460F4B9847FAB2296893
S21440029020460E4B98470822296820460C4B984724
S2144002A07208296820460B4B984786F0010202F0F8
S2144002B0010229682046084B9847BDE8F08100BFF8
S2144002C080D1F008B11340009D134000C913400090
S2144002D0591340001913400039134000F5134000ED
S2144002E008B5436813F0040F05D009680F290AD8EB
S2144002F0054B984708BD0B68032B04D8012199404D
S214400300C943014B984708BDB512400022B90020AA
S2144003107047013B05D10FE010B41446013943F64F
S2144003209923026912F0020FF3D011F8013FC3601F
S214400330013CF4D1002001E06FF002005DF8044B70
S214400340704700BF22B900207047013B08D11CE02F
S21440035070B415460139FF2640F2012443F699232E
S214400360026912F0020FF0D0C66043F6992301E00E
S214400370013B0DD0026934EA0202F9D1836801F8E4
S214400380013F013DEAD1002004E06FF0020001E0A9
S2144003906FF0020070BC704790B92DE9F0410C46F2
S2144003A09046002A0FDD8F18084E094D30682146CA
S2144003B02B6898470134A742F8D14046BDE8F08103
S2144003C04FF0FF3070470020BDE8F081FC0C402025
S2144003D0F40C40200138022815D82DE9F0410E468D
S2144003E014469AB10D46DFF838800C4FD8F8000016
S2144003F015F8011B3B68984700280ADBA81B013C00
S214400400F4D1BDE8F0814FF0FF3070470020BDE8E2
S214400410F0814FF0FF30BDE8F08100BFF80C40207F
S214400420FC0C40202DE9F0414FF40042994B5A60B5
S214400430BFF34F8FBFF36F8F974B0022C3F8502206
S2144004405A6942F400325A61BFF34F8FBFF36F8F41
S214400450D3F88060C6F34E3506F007070437C6F378
S214400460C906B6FA86F000F01F00BFF34F8F1C4651
S214400470334605FA07F103FA00F20A43C4F860224D
S214400480013BB3F1FF3FF6D1013DB5F1FF3FEFD160
S214400490BFF34F8F804B5A6942F480325A61BFF3A4
S2144004A04F8FBFF36F8F7D4A7D495160A1F58071B4
S2144004B05160BFF34F8FBFF36F8FD3F8902222F077
S2144004C00102C3F89022D3F8942222F00102C3F826
S2144004D09422BFF34F8FBFF36F8F0A20714CA04713
S2144004E00B20A0470C20A0471020A0471120A04773
S2144004F06D4E4FF48078C6F81080C6F8A080C6F8D7
S21440050030806A4C4FF400656561C4F8A05065665B
S214400510C4F8905065652562C4F88450236F23F470
S21440052000632367636F23F400636367C4F8C050B7
S214400530C4F8D450C4F8B0504FF400132366C4F83F
S214400540903063656362C4F88030226F22F40012F4
S2144005502267626F22F4001262676360544AD2F8E0
S214400560143143F01003C2F8143102F5B2221023BE
S2144005701366C2F8903053655362C2F88030116FEC
S21440058019431167516F1943516753600822226619
S214400590C4F8902062656262C4F88020216F21F022
S2144005A008012167616F21F0080161676260236678
S2144005B0C4F8903063656362C4F88030226F22F0DE
S2144005C010022267626F22F01002626763600023A7
S2144005D04FF400524FF060513046364FB847002334
S2144005E04FF080424FF060513046B8470123FF221B
S2144005F04FF000613046B84701233F224FF000617C
S2144006002D48B84701234FF4C0324FF000612046D2
S214400610B847012342464FF000613046B8470123B1
S2144006202A464FF000613046B84701234FF4002277
S2144006304FF000612148B84700234FF400724FF056
S21440064080513046B8474FF4007130461C4B9847AF
S2144006504FF0805174201B4CA0474FF080517520BE
S214400660A0474FF080517620A0474FF080517B2026
S214400670A0474FF060511820A0474FF06051062029
S214400680A0474FF060515320A04753200E4B984749
S214400690BDE8F08150180E4000ED00E0000C0E4022
S2144006A00C08005A3512400000120E40000E0E4054
S2144006B000800840510E400000160E4000140E40C8
S2144006C0590D4000250F4000ED0E400030B4046840
S2144006D0B4F5A07F02D340F23F1404601468B4F52A
S2144006E0A07F02D340F23F1414600C68B4F5F07F4C
S2144006F002D340F2DF140C601C68B4F5F07F02D3DE
S21440070040F2DF141C6004681568AC4201D90560ED
S21440071014600A681868824201D908601A6030BCC2
S214400720704700BF10B582B006200A4B984700239A
S21440073003222C210848094CA04700230193019B23
S214400740FE2B05D8019B01330193019BFE2BF9D963
S21440075002B010BD090F400000800040E11240008A
S21440076070B582B005460E4614460620144B984790
S2144007700023032229461348134DA847002301931C
S214400780019BFE2B05D8019B01330193019BFE2B59
S214400790F9D994B106200D4B984722463146094870
S2144007A00B4B984700230193019B5E2B05D8019B7A
S2144007B001330193019B5E2BF9D902B070BD00BF97
S2144007C0090F400000800040E1124000ED0E40005E
S2144007D00D03400030B583B004460D4606200A4B54
S2144007E098472A4621460948094B984700230193D3
S2144007F0019BFE2B05D8019B01330193019BFE2BE9
S214400800F9D903B030BD00BFED0E40000080004077
S2144008100D034000014628B97047013BFDD1914287
S21440082001D87047014A024BF7E700BFA186010096
S214400830A086010000B583B018B1E8238DF80730D4
S21440084002E048238DF8073001220DF107013620DB
S214400850024B984703B05DF804FB00BF61074000B9
S21440086010B584B0ADF80E00013A0244ADF80C2045
S214400870ADF80A10013B1944ADF80810030A8DF88C
S21440088004308DF80500C2F307238DF806308DF846
S214400890072004220DEB02012A20104CA04700221C
S2144008A011461046A0479DF80B308DF804309DF851
S2144008B00A308DF805309DF809308DF806309DF8E1
S2144008C008308DF8073004220DEB02012B20A0479C
S2144008D0002211461046A04704B010BD61074000F4
S2144008E008B5002211462920014B984708BD00BF95
S2144008F06107400010B4C0F30744C0F30721064B1D
S21440090003F570721C705970987003339342F9D196
S2144009105DF8044B704700BF8808402010B584B08F
S214400920ADF80600ADF80410030A8DF80C30C0B2DE
S2144009308DF80D008DF80E308DF80F00042203A9B7
S2144009402A200E4CA047002211461046A0479DF88C
S21440095005208DF80C209DF804308DF80D308DF86C
S2144009600E208DF80F30042203A92B20A04700222A
S21440097011461046A04704B010BD00BF61074000B6
S2144009802DE9F04387B08146032406AF47F8084D6B
S2144009905C4E30465C4B9847002500955B4B2246A4
S2144009A039463046DFF89481C0472A4621463046CD
S2144009B0574B984739463046564B9847012030604B
S2144009C070612A462946544FB847C820534EB04710
S2144009D02A4629461120B847C820B04781238DF8BB
S2144009E00A308DF80B504FF001082E4642460DF166
S2144009F00A01FB20B8479DF80A3001338DF80A30CB
S214400A000396039BFE2B05D8039B01330393039B5E
S214400A10FE2BF9D932463146D320B8470620404B04
S214400A20984742460DF1090136483E4B9847039693
S214400A30039BFE2B05D8039B01330393039BFE2B9E
S214400A40F9D9013C9DF80930E20093401D434246E7
S214400A500DF10B01FB20B8470396039A40F6FE7350
S214400A609A4206D81A46039B01330393039B93424C
S214400A70F9D9002CBAD149F288439D423ED106AD01
S214400A80482305F8013D012229463620224EB0472C
S214400A906420224CA04704238DF8173001222946B3
S214400AA0CF20B0476420A04706238DF81730012298
S214400AB029463A20B0476420A0470022114613201A
S214400AC0B0476420A047184B98476420A0470020B2
S214400AD0164B98476420A047B9F80430B9F8002070
S214400AE000210846124CA047D9F80800114B9847F9
S214400AF000210846104B9847002000E0012007B030
S214400B00BDE8F083008000400D024000002D31011A
S214400B1059134000E10240006107400015084000BC
S214400B20ED0E400045034000E10840003508400017
S214400B3061084000F50840001D0940006102400081
S214400B40B0F5A07F0FD2B1F5F07F0CD208B589B2D0
S214400B5080B2064B9847064B984703210548064BFC
S214400B609847002008BD0120704700BF1D0940007F
S214400B702507400088084020D50740002DE9F04171
S214400B8084B003900291019204AA42F8103D1346A5
S214400B9001AA02A903A8214CA047BDF80C00BDF845
S214400BA00810009B01335B1A019A0132121A9BB25D
S214400BB092B21B4CA0471B4B9847039D019B591B69
S214400BC0009B0133029D5D1B01FB0555164CA4FBA3
S214400BD00534240A09D0DFF858804FF47077134E56
S214400BE039464046B047013CFAD10F49A1FB053192
S214400BF0090A01EB8101A5EB811101EB41010C488B
S214400C000A4B98474FF4F0734FF4A0720021084601
S214400C10034CA04704B0BDE8F08100BFCD064000BD
S214400C206108400025074000CDCCCCCCD50740001D
S214400C30880840202DE9F04F85B003900292137843
S214400C40002B45D08A460190DFF890800A2B04D1CD
S214400C500AF1100A039B019334E003EB83031E4E14
S214400C6006EB8303A3F27F26019F3B460A3300939D
S214400C700AF107090724B3465D4616F8013C2341AE
S214400C8013F0010F03D0C4EB09013846C047013CBE
S214400C90B4F1FF3FF0D107240AF10F0B2B78234124
S214400CA013F0010F03D0C4EB0B013846C047013C9C
S214400CB0012CF3D102360137009BBB42DAD1019BAF
S214400CC00C330193029A12F8013F0292002BBDD1D9
S214400CD005B0BDE8F08F00BF6C4C4000410B4000B3
S214400CE010B584B003900291013A10440190013B44
S214400CF0194404AB43F8101D01AA02A903A8134CDB
S214400D00A047BDF80C00BDF80810009B01335B1AE5
S214400D10019A0132121A9BB292B20D4CA047039A26
S214400D20019B991A029A009B9B1A03FB01F202EB65
S214400D30420206992C20074B98474FF4F0734FF425
S214400D40A07200210846A04704B010BDCD06400062
S214400D506108400061074000016370474264B1F19A
S214400D60C05F2FD007D8B1F1006F14D0B1F1805FCB
S214400D701ED039B97047B1F1205F37D004D8B1F1F1
S214400D80005F29D042607047B1F1405F2ED0B1F18C
S214400D90605F2BD0F6E710B4046F016FD343214059
S214400DA019400167446F416F21400B4043671AE08A
S214400DB0036F13430367416F436F0B4023EA0203FD
S214400DC04367DFE7016F036F0B4023EA02030367C5
S214400DD0436F13434367D5E7036F13430367436F7C
S214400DE013434367CEE742605DF8044B704700BF4D
S214400DF0416412F0010F01D0416600E0016612F036
S214400E000A0F01D0016200E0416212F0020F02D0E8
S214400E10C0F8801004E012F0080F01D0C0F884102B
S214400E2041610160704700BF10B44164019C0CB141
S214400E30416600E001660BB1016500E041650AB11C
S214400E40016300E04163016101605DF8044B704757
S214400E5070B582B0054616461C46B1F1005F14D008
S214400E6009D8B1F1805F10D0B1F1C05F0DD0B1F1BB
S214400E70006F2DD109E0B1F1405F19D0B1F1605F4C
S214400E8016D0B1F1205F0DD022E032462846124BF4
S214400E90984714F0010F02D06E66012019E02E66C6
S214400EA0012016E01A4631460C4B9847012010E0C8
S214400EB004F001030093C4F38003B1F1605F14BFF4
S214400EC00022012231462846054CA047012000E07A
S214400ED0002002B070BD00BF5D0D4000F10D400027
S214400EE0290E4000C06C7047806C7047054B03EB82
S214400EF050135B0200F01F00012202FA00F0186354
S214400F00704700BF07072000054B03EB50135B02FA
S214400F1000F01F00012202FA00F05863704700BF3D
S214400F200707200070B582B00D46474C04EB5014BE
S214400F30640201F0F043B3F1005F4DD009D8B3F13D
S214400F40805F23D0B3F1C05F33D0B3F1006F77D169
S214400F5009E0B3F1405F5DD0B3F1605F5AD0B3F1C2
S214400F60205F4CD06CE000F01F00012686403246E1
S214400F704FF000612046354B984715F0010F02D0E0
S214400F80666601205DE0266601205AE000F01F00FC
S214400F900126864032464FF0805120462B4B9847DC
S214400FA015F0010F02D0666601204AE02666012051
S214400FB047E000F01F000126864032464FF0C05101
S214400FC02046224B984715F0010F02D06666012056
S214400FD037E02666012034E000F01F0001268640F8
S214400FE032464FF000512046184B984715F0010FF7
S214400FF002D06666012024E02666012021E000F04B
S2144010001F0101262A4606FA01F12046104B984752
S214401010304616E005F0605200F01F01012605EA52
S21440102006030093C5F38003B2F1605F14BF00224D
S214401030012206FA01F12046064CA047304600E061
S214401040002002B070BD00BF070720005D0D4000C5
S214401050F10D4000290E40002DE9F0410446884637
S2144010600E4B9847054620460D4B9847054013D0F3
S2144010700C4C04F160062368434508D16168294258
S21440108005D0E36840469847636825EA0305B442BE
S21440109002D01034002DEED1BDE8F081E50E4000C0
S2144010A0E90E4000480C402008B50A210148024B92
S2144010B0984708BD000E0E405910400008B50B2159
S2144010C00148024B984708BD00100E40591040009A
S2144010D008B50C210148024B984708BD00120E4047
S2144010E05910400008B510210148024B984708BDEA
S2144010F000140E405910400008B511210148024B1B
S214401100984708BD00160E4059104000032807D0E7
S214401110042808D002280CBF4FF48072002204E056
S2144011204FF4407201E04FF4007206490B6B23F413
S214401130407313430B630A46936E13F0080FFBD0BD
S214401140704700BF00060E40184A136B23F070032A
S21440115018431063936E13F0080F03D009E0013B69
S21440116003D11EE04FF4805310498A6E12F0080FE8
S214401170F5D00E4A136B23F0030343F002031363C8
S214401180906E10F0080004D000207047013B03D159
S21440119009E04FF4805305498A6E12F0080FF5D0E7
S2144011A07047012070470120704700BF00060E4080
S2144011B038B10E490B6A0E4A1A400E4B13430B6267
S2144011C070470A48036A090289B20B4A1A400B4B19
S2144011D01343194301620246936E13F0010FFBD08E
S2144011E0024A116A064B0B431362704700060E40D4
S2144011F0FCFFC8FE02003701FCFFC8FF01003700B5
S21440120000003701024B986E00F48030704700BFF4
S21440121000060E404FF00052014B9A62704700BFE6
S21440122000060E40024B986E00F00200704700BF6A
S21440123000060E403F281ED81F280CD8114B9A692E
S21440124001238340934318D0012303FA00F00D4B4B
S21440125018610020704720380A4BD3F80821012334
S214401260834093430BD0012303FA00F0054BC3F8A9
S2144012700001002070470120704700207047002082
S214401280704700BF00060E4008B5074B984203D192
S2144012901520064B984708BD054B984202D12A2098
S2144012A0024B984708BD00BF008000403512400002
S2144012B000800540436823F4702343604368090474
S2144012C001F470210B434360704700BF436823F02E
S2144012D07F434360436843EA01614160704700BF13
S2144012E030B443F6992401E0013C11D0056915F06D
S2144012F0020FF9D0446814F0020F06D0120402F42C
S214401300702211430BB141F08071C160002000E0B3
S214401310012030BC704700BF32B100EB8100036B48
S21440132043F001030363704700EB8100036B23F037
S21440133001030363704700BF32B100EB8100036BCB
S21440134043F002030363704700EB8100036B23F016
S21440135002030363704700BF042A0AD100EB8100F2
S214401360036B23F008030363036B43F00403036338
S214401370704752B900EB8100036B23F00803036308
S214401380036B23F0040303637047082A05D100EB80
S2144013908100036B43F008030363704700EB810151
S2144013A00B6B23F0F0030B630B6B1A430A63704717
S2144013B0431E1944B1FBF0F0431EFE2B94BF00B20F
S2144013C04FF0FF30704700BF6AB110B4144600EBD0
S2144013D081010B6B23F47F430B630A6B42EA0422C2
S2144013E00A63002002E04FF0FF3070475DF8044B80
S2144013F0704700BF10B400EB8101086B80B20863F1
S2144014000C6B44EA036343EA02420A635DF8044B0A
S214401410704700BF436913F0020F02D0C16100203D
S21440142070470120704700BF436913F0010F03D097
S21440143083690B70002070470120704710B40C0180
S21440144094420FD91AE0416841F4002141601204E9
S21440145002F4E0221A43026200201CE001201AE057
S214401460012018E0630803EBC202B2FBF4F2D30893
S2144014705C1E4FF6FE718C42E9D9EFE7C9004B0877
S21440148003EBC202B2FBF1F2D3085C1E4FF6FE71CC
S2144014908C42E5D8D7E75DF8044B7047084BC0F858
S2144014A0E43000234360436283628823036024233E
S2144014B003604FF4807303604FF40023036070476B
S2144014C00041535570B505460C4616460F4B984797
S2144014D000220F4B1A609CB13246216828460D4BBD
S2144014E09847024670B96168A3681943236919434F
S2144014F0E3680B4306490B6069680B436B6002E088
S214401500012200E00122104670BD00BF9D1440003D
S214401510B80C40203D14400040230360704700BF95
S21440152010230360704700BF436913F0020F04D0D6
S214401530C1F30801C161002070470120704700BF19
S214401540436913F0010F05D08369C3F308030B60AA
S2144015500020704701207047FEE700BF00B583B00B
S214401560274B284A9A4203D0274B254A9A4204D30F
S214401570264B274A9A420FD31AE02149254B5B1A3D
S21440158023F0030304331F4A134452F8040B41F874
S214401590040B9A42F9D1EBE71F4B204AD21A22F0AD
S2144015A003021A44043B002143F8041B9342FBD138
S2144015B01B4A1C4B23F07F039360EFF31083B3FA70
S2144015C083F35B09019372B6BFF35F8F0022164B1D
S2144015D01A700199154A136843F470031360BFF3F9
S2144015E04F8FBFF36F8F29B101220F4B1A70BFF395
S2144015F05F8F62B60E4B98470E4B9847FEE700BF8C
S2144016000000402048C640006C084020140D402092
S2144016106C0840206B08402070084020170D402082
S21440162000ED00E0000040000000402088ED00E0B3
S2144016306D1B4000B91940003C4B1B6B03F0030385
S214401640012B0FD013B1022B29D057E0384B5B69E2
S21440165013F0800F14BF4FF400424FF4FA42354B5C
S2144016601A604BE0314B1B6A13F0807F03D0324A3E
S214401670304B1A6042E0314A2E4B1A602B4B1B6AA5
S21440168003F07003102B02D0202B04D036E02C4AF7
S214401690284B1A6032E0284A264B1A602EE0234B2D
S2144016A01B6A13F0807F03D0234A224B1A6012E055
S2144016B0224A204B1A601D4B1B6A03F07003102B06
S2144016C002D0202B04D006E01D4A1A4B1A6002E0D6
S2144016D0194A184B1A60154B1B6B03F00303022B79
S2144016E00CD1124A936A926A1248C3F30A410368BD
S2144016F001FB0333D2B2B3FBF2F303600B4B1B6B1D
S21440170003F07003702B07D10A4A13680D49A1FBFA
S21440171003135B0813607047044B1B6B0549C3F308
S21440172002120B68D3400B60704700BF00060E40A5
S21440173010180E4004004020001BB70000093D0072
S21440174000127A00ABAAAAAA124B984204D84FF0CD
S2144017508062114B1A607047104B984203D8104A6B
S2144017600D4B1A6070470F4B984203D80E4A0A4BEF
S2144017701A6070470D4B984203D80D4A064B1A60C4
S21440178070470C4B984294BF4FF004220A4A024BD3
S2144017901A607047FF2C3101000C0E40FF59620260
S2144017A000010004FF86930300020004FFB3C40454
S2144017B000030004FFE0F50500050004094B1B6824
S2144017C013B9094A074B1A60064B1B681A18074993
S2144017D0914204DB1046034A1060184670474FF0AB
S2144017E0FF307047BC0C4020182F4020FCFF45209F
S2144017F04FF0FF30704700BF4FF400534B6000205F
S214401800704700BF0120704700207047F0B583B096
S21440181005460C4600230193294B984207D11F46A4
S214401820284E21463846B0470028FAD115E0264BC8
S214401830984207D11F46234E21463846B0470028D7
S214401840FAD115E0214B984207D11F461D4E21463E
S2144018503846B0470028FAD117E01D4B9D4207D1C5
S2144018601F46184E21463846B0470028FAD119E0A0
S214401870184B9D4209D11E46174D01A93046A84730
S2144018800028FAD1019B237018E0144B9D4209D1E1
S2144018901E46114D01A93046A8470028FAD1019BA3
S2144018A023700BE00E4B9D4208D11E460A4D01A9FF
S2144018B03046A8470028FAD1019B237003B0F0BDFC
S2144018C000080E4029144000000A0E40001A0E4040
S2144018D0001C0E400040024041154000008002407F
S2144018E000C0024070B50C462A4B984208D11E46AE
S2144018F0294D21463046A8470028FAD1012070BD20
S214401900264B984208D11E46234D21463046A847CE
S2144019100028FAD1012070BD214B984208D11E46BE
S2144019201D4D21463046A8470028FAD1012070BDFB
S2144019301C4B984208D11E46174D21463046A847B4
S2144019400028FAD1012070BD174B984208D11E4698
S214401950164D21463046A8470028FAD1012070BDD2
S214401960134B984208D11E46104D21463046A84794
S2144019700028FAD1012070BD0E4B984208D11E4671
S2144019800A4D21463046A8470028FAD1012070BDAE
S214401990002070BD00080E4015144000000A0E409E
S2144019A0001A0E40001C0E40004002402915400020
S2144019B00080024000C002402DE9F0418AB04E4B04
S2144019C098474E4B98470A204D4EB0470B20B0479D
S2144019D00C20B0471020B0471120B0470E20B0472B
S2144019E0484F494B1F60494A494B1A60494A4A4B3F
S2144019F01A604FF4E1330293C02303934FF400651B
S214401A0004950024059406940E20B047434A02A944
S214401A103846434B98473846424B98473846424BA1
S214401A209847424F3B6821469868414EB0473B68CE
S214401A3021465868B0473F483F4B98473F4B5D610B
S214401A40C3F8A0505D66C3F890505D655D62C3F80C
S214401A5080501A6F22F400621A675A6F22F40062AE
S214401A605A6737484FF4A07303604FF4F0734360EF
S214401A70344F8760C760344B984740F2DF1340F2DC
S214401A803F1221462046314DA8473148314EB04797
S214401A90772340F23F1221462046A84740F2DF1304
S214401AA040F23F124FF4B4712046A8472A4B0093A9
S214401AB064231A4678211846DFF8AC80C047FC20DD
S214401AC0B04740F23B1340F23F124FF49671204627
S214401AD0A8473846B047214A4FF496710F20204C0D
S214401AE0A0470A2208A919201E4B984708AAA021F9
S214401AF08C20A047FEE700BF9D0140002504400023
S214401B003512400000800240FC0C4020E5184000A2
S214401B10F80C40200D184000F40C402080D1F0080E
S214401B20C5144000191540002115400030044020DF
S214401B30E91D4000EC534000BD1B4000000E0E4027
S214401B40000D4020FCFCFC00810940007D0B40005D
S214401B50E0288800F50840005C54400040544000AF
S214401B60350C4000151C4000E10C400070B50F4E8F
S214401B700F4D761BB61018BF002405D0013455F81B
S214401B80043B9847A642F9D10A4E0B4D761B0AF005
S214401B9045FDB61018BF002406D0013455F8043B66
S214401BA09847A642F9D170BD70BD00BF28C6400018
S214401BB028C6400030C6400028C640000FB400B5D6
S214401BC0074983B004AB086853F8042B8168019337
S214401BD000F036FA03B05DF804EB04B0704700BF7F
S214401BE030044020931E222B10D80A2A10B506D067
S214401BF000230C46194400F0A7F9204610BD0028E3
S214401C00F6DA2D230B7040420123F2E700200870DD
S214401C10704700BFFFF7E6BF844641EA000313F073
S214401C2003036DD1403A41D351F8043B40F8043B9E
S214401C3051F8043B40F8043B51F8043B40F8043B61
S214401C4051F8043B40F8043B51F8043B40F8043B51
S214401C5051F8043B40F8043B51F8043B40F8043B41
S214401C6051F8043B40F8043B51F8043B40F8043B31
S214401C7051F8043B40F8043B51F8043B40F8043B21
S214401C8051F8043B40F8043B51F8043B40F8043B11
S214401C9051F8043B40F8043B51F8043B40F8043B01
S214401CA051F8043B40F8043B403ABDD2303211D3A1
S214401CB051F8043B40F8043B51F8043B40F8043BE1
S214401CC051F8043B40F8043B51F8043B40F8043BD1
S214401CD0103AEDD20C3205D351F8043B40F8043BA1
S214401CE0043AF9D2043208D0D2071CBF11F8013B9F
S214401CF000F8013B01D30B8803806046704700BF65
S214401D00082A13D38B078DD010F003038AD0C3F173
S214401D100403D21ADB071CBF11F8013B00F8013B55
S214401D2080D331F8023B20F8023B7BE7043AD9D314
S214401D30013A11F8013B00F8013BF9D20B780370E9
S214401D404B7843708B7883706046704770B48407D6
S214401D5046D0541E002A41D0CDB2034602E0621E51
S214401D60E4B3144603F8015B9A07F8D1032C2ED946
S214401D70CDB245EA05250F2C45EA054519D903F1AC
S214401D8010022646103E0F2E42F8105C42F80C5CBD
S214401D9042F8085C42F8045C02F11002F2D8A4F162
S214401DA0100222F00F0204F00F041032032C1344EA
S214401DB00DD91E462246043A032A46F8045BFAD852
S214401DC0221F22F003020432134404F003042CB111
S214401DD0C9B21C4403F8011BA342FBD170BC704738
S214401DE014460346C2E700BF00290CBF0222002269
S214401DF04FF4806300F000B82DE9F043514C25685D
S214401E0083B004460F4690461E4615B1AB6B002B7A
S214401E1079D0B8F1020F04D0B8F1010F7FD8002E68
S214401E207DDB2146284601F057F9216B41B104F18C
S214401E304003994202D0284601F0ACFA00232363BF
S214401E40B4F90C300022A26162601A0654D423F41E
S214401E504A6323F00303B8F1020FA38139D001ABE4
S214401E606A462146284601F033FDA3891843A081DF
S214401E7026B327B3AB6B002B4DD0009BB4F90C00B8
S214401E8027609E421CBF40F40060A081B8F1010F5D
S214401E9008BF40F0010083B208BFA08103F00800ED
S214401EA080B22761666118B313F001002FD000207E
S214401EB07642A661A06003B0BDE8F083009E30463F
S214401EC001F07AFD074668B3A38943F08003A381F7
S214401ED0D0E7002004F1430243F00203002501212D
S214401EE0A381A56022602261616103B0BDE8F083F2
S214401EF0A06003B0BDE8F0832169284601F04AFAA5
S214401F00B4F90C30A3E7284601F07AF981E7A660D9
S214401F1003B0BDE8F083284601F072F9ADE74FF014
S214401F20FF30E2E7DDF80090B14506D0484601F0C4
S214401F3043FD074608B14E46C6E7B4F90C304FF0AD
S214401F40FF30C7E730044020F0B5DFF878E01646AB
S214401F5004460F46BEE80F008BB06D460FC5BEE880
S214401F600F000FC59EE80300B31E45F8040B222B56
S214401F70297022D87D1E2846002200E01A46B4FB6F
S214401F80F6F10AAB06FB114423440C4613F8283CF2
S214401F9000F8013F531C0029F0D1F954BB184AB150
S214401FA0197815F8010F29700134111B8C4203F87B
S214401FB00109F5DB38460BB0F0BD002038700BB099
S214401FC0F0BD00BFA4C540004B6E2DE9F0479C0411
S214401FD092462CD5936812683BB30F46804602F172
S214401FE0080919E96000B60817D0043D002401E04E
S214401FF0A64210D03A4655F8041F404601F06AF90A
S214402000431C04F10104F3D10023CAF80830CAF88F
S2144020100430BDE8F087DAF80830A3EB8603CAF848
S214402020083009F10809002BDBD10020ECE701F06D
S21440203099FA0023CAF80830CAF80430BDE8F08799
S2144020402DE9F04FABB01C460091904604930590A6
S21440205018B1836B002B00F0DE800098B0F90C10AE
S2144020608AB2950407D4436E41F4005223F40053D9
S2144020708281436692B2110740F1B180009B1B6992
S214402080002B00F0AC8002F01A020A2A00F0B5805D
S21440209000230DF1680B02930F930E93CDF834B0E6
S2144020A0DA4698F800304446FBB1252B02D11CE0B6
S2144020B0252B03D014F8013F002BF9D1C8EB0405BB
S2144020C09DB10E9B0F9ACAF8008001332A44072B15
S2144020D0CAF804500F920E937BDD002A40F0288504
S2144020E0029B0E922B44DA4602932378002B00F094
S2144020F03E8400214FF000034FF0FF328DF82F3022
S21440210004F101086378019208460E460C4608F131
S2144021100108A3F12002582A00F29383DFE812F068
S2144021204603910391034E03910391039103910358
S2144021309103910389026702910380006C02910328
S214402140C601590259025902590259025902590206
S214402150590259029103910391039103910391030C
S2144021609103910391039103CB0191039103910352
S21440217091039103910391039103910391031402F8
S21440218091039103910391039103EE02910391030E
S21440219011039103910391039103910391039103DA
S2144021A091039103910334038A03910391039103AE
S2144021B067038A03910391036C03910379039502A5
S2144021C08500E90291039B029103BA0291039103B1
S2144021D053030AF1080A029B2B44029385E70099B1
S2144021E0059800F061FE002840F05885009B9A89CB
S2144021F002F01A020A2A7FF44BAF0099B1F90E306A
S214402200002BFFF645AF23464246059800F016FEE3
S2144022102BB0BDE8F08F00F0F3FF1EE76442049356
S21440222046F0040698F8003071E7302104988DF89F
S2144022303010019906944FF0000378228DF82F3025
S214402240002903468DF83120046803F104034FF05B
S214402250000546F00202C0F2258526F0800654EAC4
S214402260050246F00206049340F0BF84B348019B43
S214402270002B40F01C8499460023019303935F464D
S214402280019B039A9342B8BF13461D46B9F1000F0F
S21440229000D0013516F00203079318BF023516F03A
S2144022A08403089340F0F182069B5C1B002C40F3AD
S2144022B0EC82102C40F35685DFF88492DDF838E047
S2144022C00F9AD4461023C2467046A8464D46DDF8BF
S2144022D0149007E000F1020E0CF1080C0846103C82
S2144022E0102C13DD411C103207290F92CCF80050F9
S2144022F0CCF804300E91EDDD002A40F0B782103C59
S214402300102C10464FF0010EDC46EBDCA94670461A
S2144023104546D046E246224407280F92CAF8009027
S214402320CAF804400E9000F375839DF82F300AF1EA
S214402330080A00F1010E002B40F0B082079B002BEC
S21440234000F0C38202320CA90223BEF1070F0F929F
S214402350CDF838E08AE80A0040F37883002A40F057
S2144023600A84089B802B4FF0010E1046DA4640F058
S214402370B082069B5C1B002C40F3AB82102CDFF82F
S214402380C49140F30B85D6461023C246A8464D4618
S214402390DDF8149007E000F1020C0EF1080E084636
S2144023A0103C102C13DD411C103207290F92CEF83A
S2144023B00050CEF804300E91EDDD002A40F0158333
S2144023C0103C102C4FF0010C1046DE46EBDCA946C4
S2144023D04546D046F2462244BCF1070F0F92CAF853
S2144023E00090CAF80440CDF838C000F3D283019B71
S2144023F003995C1A002C0AF1080A0CF1010E60469B
S21440240000F36D820399CAF800700A44BEF1070FC4
S2144024100F92CAF80410CDF838E040F3CE82002A76
S21440242040F03A8370070E9238D5069B5C1B002C12
S21440243034DDDA46102C40F3AB84DFF804910E9975
S2144024404F461026DDF8149006E0881C0AF1080A6C
S2144024501946103C102C13DD4B1C1032072B0F92E4
S214402460CAF80070CAF804600E93EEDD002A40F009
S2144024708E82103C102C4FF001001146DA46EBDC01
S214402480B946224407280F92CAF80090CAF804407A
S2144024900E9040F39B82002A40F02584029B069AC9
S2144024A0AA42ACBF9B185B19029399E246F080069D
S2144024B098F800302BE60694002940F0AF8446F0AA
S2144024C01006B30640F112830499073121F0070144
S2144024D0D1E900230831049114461D46002A73F1C1
S2144024E00003C0F28683019B9DF82F90002BC0F21C
S2144024F01A8354EA050326F0800600F0ED80002D8E
S21440250008BF0A2CC0F0ED805F46204629460A22C6
S214402510002302F01FFA303207F8012D20462946E4
S21440252000230A2202F016FA04460D4654EA050332
S214402530EBD1C7EB0B030393A2E600BFF0C5400008
S2144025400CC64000CCC540000694002940F062848A
S21440255046F0100616F0200300F0AE82049B0733C8
S21440256023F007034FF000028DF82F20D3E90045F3
S21440257003F10802019B0492002BC0F2748154EAD6
S214402580050326F0800640F06E81019B002B00F08C
S21440259030844FF00009002400255F46E20842EAF6
S2144025A04572E90804F007030D461446303354EAF2
S2144025B0050207F8013DF1D1F407BAD5302BB8D063
S2144025C030227B1E07F8012CC3EB0B0203921F46FA
S2144025D056E6A3F13002002418F8013B04EB8404CD
S2144025E002EB4404A3F13002092AF5D991E598F8A4
S2144025F0003001212B208AE598F800302A2B08F17C
S214402600010500F0DD83A3F13002092AA84698BFF1
S214402610002500F2CE8318F8013B05EB850502EB5A
S2144026204505A3F13002092AF5D945EAE57201923B
S2144026306FE5049A14681346002C03F10403FFF672
S214402640EDAD049398F8003061E50694002981D0FA
S2144026508DF82F007EE7049A069417684FF0000323
S2144026608DF82F30141D019B002F00F08683002B21
S214402670C0F25F831A460021384601F061FC00280C
S21440268000F08F83C31B0393002304949DF82F9080
S2144026900193F5E50694002940F0B98316F0200929
S2144026A035D116F0100303D116F0400940F02A83C6
S2144026B0049A13461468019A8DF82F90002A03F165
S2144026C004034FF00005C0F2328354EA050226F0B8
S2144026D0800604937FF413AF019B002B3FF4CCADF0
S2144026E000242AAF303407F8414DC7EB0B03039361
S2144026F0C6E546F0200698F8003008E5069400291E
S21440270040F06E8346F0100616F02009C9D0049BB0
S214402710073323F007034FF000028DF82F20D3E94C
S214402720004503F10802019B0492002BC0F2F98198
S21440273054EA050326F080064FF000097FF4DFAE2A
S214402740CAE70694002940F05183B206AE4841D508
S214402750049A073222F00702D2E9004502F1080146
S214402760049116F0010900F0778154EA050240F022
S21440277026824FF000038DF82F30019B002BC0F2CD
S214402780968126F0800672E5049A069413688DF8C2
S214402790403013464FF00001012504338DF82F10CA
S2144027A00493039510AF0023019373E598F8003027
S2144027B000287FF4ACAC01212020A8E446F00106B6
S2144027C098F80030A3E40694002940F00C83B20643
S2144027D08E48BDD40499F7060A4600F19D817506D9
S2144027E040F19A8104320C8804920025B9E746F0FD
S2144027F0400698F800308AE498F800306C2B03BF07
S21440280098F8013046F0200608F1010846F0100618
S2144028107DE4002940F00983B40640F11C82049A06
S21440282002991368CD170846043229460492C3E934
S214402830000136E4069400293FF443AE8DF82F009D
S2144028403FE60694002940F0ED82002B00F08F8092
S21440285001258DF840304FF000038DF82F3003955A
S21440286010AFA0E704934FF0000996E60DAA009932
S21440287009934846FFF7A8FB00287FD10E980F9A89
S214402880099B00F1010EDC4629E50E980F9A00F1EF
S214402890010E9DF82F30002B3FF450AD01320DF164
S2144028A02F010123BEF1070F0F92CDF838E08AE8DA
S2144028B00A0040F3BF80002A40F04E810799002965
S2144028C040F0BE809E461046DA46089B802B3FF47A
S2144028D050AD019B03995C1A002C7FF793AD102CEA
S2144028E0DFF82C9125DDD4461023C246A8464D4637
S2144028F0DDF8149007E000F1020E0CF1080C0846D3
S214402900103C102C11DD411C103207290F92CCF8D8
S2144029100050CCF804300E91EDDDD2B9103C102CAE
S2144029204FF0010E1046DC46EDDCA9464546D04643
S214402930E2462244BEF1070F0F92CAF80090CAF84A
S2144029400440CDF838E02EDC0AF1080A0EF1010EFC
S21440295058E50DAA009901934846FFF735FB68B93C
S2144029600E980F9A019B00F1010EDC46C8E70F9BBC
S21440297023B1059800990DAAFFF726FB009B9B897B
S2144029805A0600F18B8102982BB0BDE8F08F0DAA55
S21440299000994846FFF718FB0028EFD10E990F9A8A
S2144029A0481CDA4655E5002A40F0FB80039A1B9205
S2144029B001230F921A970E93DA460AF1080A710716
S2144029C004D5069B5C1B002C3FF734AD029B069952
S2144029D0A942ACBF5B185B190293002A40F0B38053
S2144029E000230E93DA46FFF75CBB0DAA00990793C7
S2144029F04846FFF7E9FA0028C0D10E980F9A079B81
S214402A0000F1010CDE46CBE4DCC54000F0C54000DA
S214402A10CCC54000002A40F033819DF82F30002B73
S214402A2000F0F58001230DF12F011A461B939E46B8
S214402A301A91DA4670460AF1080A0EF1010E7DE454
S214402A400CA902229E461A911B92DA4670460AF15B
S214402A50080A0EF1010E38E7019B8DF82F90002BE7
S214402A60C0F22A8154EA050326F080063FF4FFAB05
S214402A705F46230904F00F0143EA05732A091C4602
S214402A801546435C07F8013D54EA0503F1D1C7EB10
S214402A900B030393FFF7F4BB0DAA00990598FFF7C5
S214402AA093FA00287FF46AAF0F9ADA4687E74FF02A
S214402AB0000900240025DBE716F0100200F0B28083
S214402AC004998DF82F300A460C680199002902F1C6
S214402AD004024FF00005C0F2598154EA050126F081
S214402AE0800604923FF451AD994656E5F7060AD45F
S214402AF0750608D50499B1F900400431E517224619
S214402B002B460491EAE4049A146813460433E51706
S214402B10049322462B46E1E41468043204920025CE
S214402B201FE64FF0000954EA05037FF4E8ACD8E509
S214402B300DAA00990598FFF747FA00287FF41EAFC4
S214402B40DA46FFF748BB0DAA00990598FFF73CFA0E
S214402B5000283FF445AF11E70DAA00990598FFF706
S214402B6033FA00287FF40AAF0E980F9A00F1010E50
S214402B70DA46FFF7E3BB0DAA00990598FFF724FA5B
S214402B8000287FF4FBAE0E980F9A00F1010EDA464D
S214402B909BE6002A40F0D8804FF0010E1046DA46F9
S214402BA097E60DAA00990598FFF70EFA00287FF4DD
S214402BB0E5AE0E9B0F9A03F1010EDA4622E4302270
S214402BC08DF83020019A8DF83130002A4FF00003FE
S214402BD08DF82F3046F00203C0F2CB8026F08006F8
S214402BE046F002064FF0000942E74FF000099048D1
S214402BF03EE7019B64424FF02D0965EB4505002BEF
S214402C008DF82F90FFF67BAC26F0800677E4079B86
S214402C10002B72D00CAB02221A931B924FF0010E7F
S214402C20DA4613E716F0400948D004998DF82F206D
S214402C300B460C880199002903F104034FF0000568
S214402C40FFF610AE54EA050126F0800604933FF4E2
S214402C509CAC9146A1E4F0060AD4710608D5049AC5
S214402C60136804320492BDF808201A80FFF719BA98
S214402C70049A136804320492029A1A60FFF711BA53
S214402C800DAA00990598FFF79FF900287FF476AEC5
S214402C900E980F9A00F1010EDA46FAE54FF0FF3033
S214402CA0FFF7B6BA6248164654EA050204934FF058
S214402CB000097FF4DDAEFCE6049BF5E7049A8DF848
S214402CC02F9013461468019A002A03F104034FF02C
S214402CD00005FFF6C7AD54EA050226F080060493C9
S214402CE07FF45BAC51E40DAA00990598FFF76CF9A8
S214402CF000287FF443AE0F9A68E610464FF0010E68
S214402D00DA46E6E504998DF82F300A460C88019994
S214402D10002902F104024FF000054EDB54EA05019B
S214402D2026F08006049299467FF4E9ABD4E40493F7
S214402D30F9E63846049401F003FC002303909DF81E
S214402D402F900193FFF79CBA0DAA00990598FFF7BC
S214402D503BF900287FF412AE0E980F9A00F1010E50
S214402D60DA46B6E50E980F9ADFF8CC900130FFF7BA
S214402D70D2BA1E464FF000097AE6062B28BF062335
S214402D800393049423EAE3752A4F0CE504926AE51C
S214402D900E98DFF8A4900130FFF773BBF446FFF7B8
S214402DA01ABB019B9DF82F90039304940190FFF764
S214402DB067BA00220192FFF7ACB904929946B2E690
S214402DC0049A136801930432002B049298F8013059
S214402DD0A846BFF69CA94FF0FF320192FFF797B97D
S214402DE08DF82F008EE48DF82F00F0E48DF82F003C
S214402DF0ABE49946F30705D52AAF302307F8413DA3
S214402E00FFF797BB019B03935F46FFF739BA8DF8F0
S214402E102F0043E48DF82F00FFF79ABB8DF82F0064
S214402E20FFF74DBB8DF82F000FE58DF82F00F3E42C
S214402E30F0C5400004C640000CC64000F0B50C4645
S214402E40ADF26C4D8989666EE589199621F00201CE
S214402E50666AADF80E500025E769ADF80C10099685
S214402E6006951AAE4FF4806569460096049602951C
S214402E70059507970646FFF7E3F8051E07DB30463D
S214402E80694600F029F9002818BF4FF0FF35BDF815
S214402E900C305B0603D5A38943F04003A381284644
S214402EA00DF26C4DF0BD00BF38B5304B1B68054683
S214402EB00C4613B19A6B002A38D0B4F90C2093B262
S214402EC018070CD52069A8B113F001021ED063691B
S214402ED000225B42A361A260F0B1002038BDD90653
S214402EE03CD5580726D4206942F00803A3819BB2FC
S214402EF00028E9D103F42072B2F5007FE4D02846DA
S214402F00214600F015FDA3892069DDE7990758BFE3
S214402F106269A2600028E0D1B4F90C301A06DDD50B
S214402F2043F04003A3814FF0FF3038BD184600F011
S214402F3067F9C2E7216B51B104F14003994204D0CE
S214402F40284600F027FAB4F90C2000232363002318
S214402F502069636022F024022060C5E742F0400208
S214402F6009232B604FF0FF30A28138BD300440204B
S214402F70024B13B1024800F005B87047000000004D
S214402F8015324000002301461A46184601F0EABBB7
S214402F90B1F90C309AB22DE9F0410D461107804642
S214402FA03CD46A6843F40063002AAB8173DDAC6AA4
S214402FB0002C4BD09BB203F48052002192B2D8F83A
S214402FC00060C8F80010002A69D02A6D5F0705D552
S214402FD069682B6B521A0BB1EB6BD21A0023E96966
S214402FE04046A047441C3CD0B5F90C302A692A60BC
S214402FF023F400630022AB81DB046A6049D4296B6A
S214403000C8F8006011B305F14003994202D040462B
S21440301000F0C0F900202863BDE8F0812E69AEB10B
S2144030202C682E6090070CBF6B690023A41BAB6016
S2144030300AE0234632466F6AE9694046B8470028A8
S214403040A4EB0004064404DD002CF2DC0020BDE8BE
S214403050F081AB8943F04003AB814FF0FF30BDE8D1
S214403060F081D8F800201D2AF3D81A4BD34003F03D
S214403070010383F00104002BEBD0B5F90C3029692D
S214403080296023F40063D9046C60AB81B7D5002A6D
S214403090B5D12865B3E7EA6B002A88DCD6E701237A
S2144030A0E9694046A047431C024602D0AB89AC6A59
S2144030B08CE7D8F80030002BF8D01D2B01D0162B0B
S2144030C002D1C8F80060C1E7AB8943F04003AB814A
S2144030D0BDE8F0810100402010B5044682B008B13A
S2144030E0836B53B1B1F90C0008B902B010BD20464D
S2144030F002B0BDE81040FFF74BBF019100F080F8EA
S2144031000199EFE7014900F0AFBB00BF2D484000F2
S2144031102DE9F04F354B4568C3630024074600F55C
S2144031203B7204230321C0F8E412C0F8E822C0F83A
S214403130E04283B02C606C60AC606C66EC812C61C5
S2144031406C61AC61AB81214605F15C000822FEF75C
S214403150FDFDBE68DFF898B0DFF898A0DFF89890DD
S214403160DFF89880C5F820B001230922C5F824A0CE
S214403170C5F82890C5F82C80ED612146F381B281D0
S21440318006F15C0034607460B460746634617461E7
S214403190B46108220193FEF7D9FDFD68F66112205E
S2144031A00222C6F820B0C6F824A0C6F82890C6F872
S2144031B02C802146A881EA812C606C60AC606C66ED
S2144031C02C616C61AC6105F15C000822FEF7BEFD27
S2144031D0019BED61C5F820B0C5F824A0C5F828903D
S2144031E0C5F82C80BB6303B0BDE8F08F05314000C6
S2144031F0B5444000D94440001545400035454000A0
S214403200836B03B17047FFF783BF00BF704700BFB3
S214403210704700BF38B5074D074C2C1BA41005D08F
S214403220013C55F8043D9847002CF9D1BDE838409C
S21440323009F0FEB940C640003CC640002DE9F047C4
S21440324082B080468946144600F03CFB012833D0C5
S21440325004F15C034A4601A9404601F035FAB0F154
S214403260FF3F824621D088B39DF80460002508E0E1
S21440327023685A1C22601E700135554526D201AB84
S2144032805E5DA368013B002BA360F1DAA769BB42F1
S21440329031462246404601DB0A2EE9D101F0BEF90E
S2144032A0431CE9D102B0BDE8F087A38943F0400350
S2144032B0A38102B0BDE8F08709F1FF33FE2BC7D8E3
S2144032C05FFA89F682468DF80460CFE7484602B03A
S2144032D0BDE8F087B2F90C3013F4005F0AD110B4A1
S2144032E0546E43F4005344F400545466938110BC27
S2144032F0FFF7A4BFFFF7A2BFF8B5234F0C4606461C
S21440330000F0D2FEBB685D6825F00305291B01F678
S214403310EF7121F47F6121F00F01A1F58054B4F5DF
S214403320805F07DB0021304601F0B2F8BB682B44D3
S214403330984204D0304600F0B9FE0020F8BD614205
S214403340304601F0A5F801300DD0104BBA68196828
S2144033502D1B45F001053046091B5560196000F0ED
S214403360A5FE0120F8BD0021304601F091F8BA686C
S214403370831A0F2BDEDD064C0449246843F0010314
S214403380001B53600860D5E758044020CC0C402012
S21440339064084020002945D02DE9F0410D4680467E
S2144033A000F082FE55F8047C6A4927F00103A5F137
S2144033B00804E2188E685068B24220F0030062D0DB
S2144033C0FE0750600BD455F8087CE41B01F1080E4C
S2144033D0A56875453B446FD0E768EF60BD6015183B
S2144033E06D68ED0742D543F001026260E350B3F5E5
S2144033F0007F18D2DB085A1C4D6851F83270A7601F
S21440340001209B1000FA03F301EBC2001D4308386D
S214403410E0604D6041F83240FC604046BDE8F04117
S21440342000F044BE70475A0A042A53D89A0902F15B
S21440343039077F0002F1380501EB870051F8272055
S2144034404449083890424DD0516821F003018B42E0
S21440345002D292689042F7D1D068E060A260846061
S214403460D4604046BDE8F04100F020BE95683A4F33
S214403470BD4203443FD0D068E86043F00102856017
S2144034806260E350B3E7FF07034407D455F8082CBF
S214403490A41A1344A068E268C26090602F4A12687B
S2144034A043F00100934260608C60B6D32C4B40469C
S2144034B01968FFF721FFB0E711184968C90744D4D7
S2144034C09168D268CA60034443F00100916060602E
S2144034D0E350A2E7142A17D802F15C077F0002F1F6
S2144034E05B05A9E7AA104B68012505FA02F21343CB
S2144034F04B600246B1E743F001024C610C61E56067
S214403500A5606260E35088E7542A06D81A0B02F199
S2144035106F077F0002F16E058EE7B2F5AA7F06D8E8
S214403520DA0B02F178077F0002F1770584E740F274
S2144035305450824206D89A0C02F17D077F0002F171
S2144035407C0579E7FE277E2576E743F00102626038
S214403550E35062E758044020600440206008402062
S214403560C80C40209368002B76D02DE9F04F8B890D
S21440357085B00C4619070190164629D522693AB3FC
S21440358003F002081FFA88F0356800282FD04FF065
S2144035900009B44FC846B246B84543464A4628BFD7
S2144035A03B460198B8F1000F50D0E169666AB047D3
S2144035B0002871DDDAF808301B1A8144C0EB080891
S2144035C0CAF80830002BE7D1002005B0BDE8F08FE0
S2144035D021460198FFF768FC002840F03A81A3890D
S2144035E0356803F002081FFA88F00028CFD113F0A0
S2144035F001095BD14F4602961FB39A05D4F808805E
S2144036002CD54745C246C0F0A48013F4906F40F0D6
S214403610B18020685246494600F0E2FCA068236824
S214403620C8EB00005344A06023603846029A936873
S2144036301B1A81443F1A9360002BC5D0A389002FE4
S214403640DBD1D5F800906F680835D5E7D5F80090FF
S214403650D5F8048008359FE7002070472068236926
S214403660984203D861698F4280F0B780B84528BF3A
S214403670B8464246494600F0B3FCA3682268C8EB09
S21440368003034244A3602260002B49D1214601989F
S214403690FFF722FD002843D0B4F90C3043F0400336
S2144036A04FF0FF30A38105B0BDE8F08F8046029012
S2144036B082468146B9F1000F2AD0029B002B4CD09F
S2144036C0206823696269C845C34628BFCB469842EE
S2144036D05F4604D9A36813449B4500F39080934506
S2144036E020DB1346676AE16901985246B847071ED1
S2144036F0D2DDB8EB070823D0B368DB1BBA44C7EB70
S2144037000909B360002B3FF45FAFB9F1000FD4D185
S2144037100023D5F800A0D5F8049002930835C9E7F1
S214403720404683E75A46514600F05AFCA268236852
S214403730CBEB02025B44B8EB0708A2602360DBD108
S21440374021460198FFF7C8FC0028A5D1CDF808808F
S214403750D2E72068B846BA465CE74A460A21504651
S21440376000F0EEFB00286FD001300123CAEB0008C2
S2144037700293A5E762692068216902EB4208C1EB23
S214403780000A08EBD8780AF101004FEA6808384486
S2144037904045424684BF804642465B0542D5114678
S2144037A0019800F011F98346002855D05246216909
S2144037B0FEF732FAA38923F4906343F08003A38193
S2144037C0CAEB08030BEB0A00C4F81480C4F810B028
S2144037D02060A360B846BA461CE76FF00043BB4281
S2144037E028BF3B464A4693FBF1F30198666A01FBC5
S2144037F003F3E169B04700283FF718AF4CE71A4695
S2144038005146039300F0ECFB2268039B01981A4450
S21440381022602146FFF760FC039B00287FF43CAF04
S2144038201F4666E7019800F043FC83460028C7D150
S214403830019D21692846FFF7ADFDB4F90C300C22F6
S21440384023F080032A6029E7012309F10108029347
S21440385036E74FF0FF30B8E6019A0C231360B4F910
S2144038600C301BE700FCFF7F2DE9F84310F5387756
S2144038701FD0884606464FF000097D68BC68013D6B
S21440388011D4A389012B05F1FF3508D9B4F90E30C0
S21440389001332146304602D0C04749EA00096B1C36
S2144038A004F16804EDD13F68002FE6D14846BDE8F4
S2144038B0F883B9464846BDE8F88300BF00487047DD
S2144038C034044020014B1868704700BF5404402021
S2144038D070B50D46B1F90E10002990B014461E463C
S2144038E014DB01AA00F0E4FF00280FDB029A02F482
S2144038F07042A2F50052B2FA82F252094FF4806347
S2144039004FF400603260236010B070BDA88900F0AC
S214403910800082B2002030601AB14023236010B08D
S21440392070BD4FF480631046236010B070BD00BF7A
S2144039308A8992070B4606D501F1430201211A6097
S2144039401A6159617047F0B583B001AB6A460C46C0
S2144039500546FFF7BDFF00990646284600F034F8B6
S214403960B4F90C30D0B1019A124F0099EF6343F08E
S2144039708003A3812060206161611AB93343A3812B
S21440398003B0F0BD2846B4F90E1000F0A5FFB4F918
S2144039900C300028F2D043F00103EFE79A05EFD44D
S2144039A004F1430243F002030121A3812260226115
S2144039B06161E5E705314000024B0146186800F0BA
S2144039C003B800BF300440202DE9F04F01F10B054D
S2144039D0162D83B0064640F29F8035F0070500F16D
S2144039E0BF80A94200F2BC8000F05EFBB5F5FC7FCC
S2144039F0C0F09C826B0A00F0BA80042B00F28381F0
S214403A00A80900F1390E4FEA4E033830C44F07EB91
S214403A108303A3F108015C68A14207D1ACE0002A09
S214403A2080F2AC80E468A14200F0A680636823F090
S214403A3003035A1B0F2AF2DDB9493C6901F1080E0F
S214403A40744500F0B381636823F003035A1B0F2AC2
S214403A5000F39981002AC1F814E0C1F810E080F222
S214403A609E80B3F5007F80F06781DB0803F1010C90
S214403A7001229B1002FA03F34A6851F83C80C4F8CE
S214403A80088001EBCC091A43A9F10803E3604A60B9
S214403A9041F83C40C8F80C40831001249C409442B6
S214403AA000F28A80144206D120F0030064001442DB
S214403AB000F10400FAD007EBC009CC468046DCF89B
S214403AC00C108C4507D173E1002A80F28181C968C9
S214403AD08C4500F06D814B6823F003035A1B0F2A78
S214403AE0F2DD0C46D1F80CC054F8088F4B1945F05F
S214403AF001054D6042F00101C8F80CC03046CCF8D4
S214403B0008807B613B61C3F80CE0C3F808E059606D
S214403B109A5000F0CBFA1FE0102921D800F0C4FAE2
S214403B201025062302207E4F07EB8303A3F10802ED
S214403B305C68944200F045816368E168A56823F0BC
S214403B400303234430465A68E96042F001028D6020
S214403B505A6000F0ABFA0834204603B0BDE8F08F58
S214403B6000240C232046336003B0BDE8F08F80234A
S214403B704FF0400E3F2049E770465DE72344E1683A
S214403B805A68A56842F00102E96030468D605A6086
S214403B9000F08CFA0834204603B0BDE8F08F23448A
S214403BA030465A6842F001025A6000F07FFA083404
S214403BB0204603B0BDE8F08FBC68636823F0030876
S214403BC0A84504D3C5EB08030F2B00F38C80554B58
S214403BD0DFF860911A68D9F8003001332A4404EBC4
S214403BE0080A00F0608102F580520F3222F47F62AC
S214403BF022F00F0211463046019200F049FCB0F127
S214403C00FF3F8346019A00F05881824500F2FC80CF
S214403C10454B1968DA451144196000F05381D9F8CC
S214403C200000DFF810E101301BBFCAEB0B0A51441D
S214403C30CEF800B019601BF0070100F01781C1F103
S214403C400800C1F58051834408315A44C2F30B0240
S214403C50C2EB010949463046019300F019FC431C6B
S214403C60019B00F03F81CBEB00024A4442F0010248
S214403C701968C7F808B04944BC42CBF8042019601C
S214403C80DFF8A49016D0B8F10F0F40F2FD806268BE
S214403C90A8F10C0323F00703E01802F001024FF0EE
S214403CA0050E1A430F2B6260C0F804E0C0F808E027
S214403CB000F21C811D4BBC681A68914288BF19608F
S214403CC01B4B1A689142626888BF196022F0030253
S214403CD09542A2EB050301D80F2B04DC304600F0DA
S214403CE0E5F9002438E7621943F0010345F0010581
S214403CF065603046BA60536000F0D8F90834204614
S214403D0003B0BDE8F08F142B71D9542B00F2A48079
S214403D10280B00F16F0E4FEA4E036E3076E600BF7A
S214403D2058044020C80C4020CC0C4020C40C4020F6
S214403D30C00C4020640840205A0A042A5ED9142A3F
S214403D4000F2B38002F15C0149005B3207EB810C64
S214403D5057F82110DFF8DC81ACF1080C8C4500F0F8
S214403D6088804A6822F00302934202D289688C45D2
S214403D70F7D1D1F80CC07A68C4F80CC0A160CCF872
S214403D800840CC6088E6631942F0010745F001051B
S214403D90656030464B610B61C3F80CE0C3F808E041
S214403DA05F609A50083400F081F9D5E64A6873E6B9
S214403DB008F1010818F0030F0CF1080C7FF47FAEF1
S214403DC030E0DC68A34208BF02303FF435AEB3E6CD
S214403DD00B440C465A68C96854F8085F42F0010222
S214403DE05A603046E9608D6000F060F9B4E603F151
S214403DF05C0E03F15B004FEA4E0307E69A0902F1B8
S214403E00390149003832A1E7BC424A4B3FF400AF83
S214403E109C68626822F003025AE759F808399945C7
S214403E2040F0828010F0030F00F1FF30F5D17B6840
S214403E3023EA04037B6064009C423FF6BDAE002C40
S214403E403FF4BAAE1C4240467FF435AE64001C4296
S214403E5000F10400FAD02EE6B3F5AA7F18D8E80B96
S214403E6000F1780E4FEA4E037730CFE54FF480519D
S214403E70EBE60121D8F80430921001FA02F21A4318
S214403E80C8F80420614677E70123CBF8043025E7DD
S214403E9040F25452934220D8A80C00F17D0E4FEACF
S214403EA04E037C30B2E51032A4E6542A26D81A0BCC
S214403EB002F16F0149006E3248E7BC68626822F042
S214403EC0030205E7CAF30B0000287FF4A8AE42447D
S214403ED0BB6842F001025A60ECE6FE234FF07F0ECC
S214403EE07E2093E501224FF00009C1E604F1080167
S214403EF03046FFF74FFAD9F80010DBE6B2F5AA7F56
S214403F0005D8DA0B02F17801490077321EE740F215
S214403F1054518A4205D89A0C02F17D0149007C3200
S214403F2014E7FE217E2211E77B6884E7E808431CFD
S214403F305B00F8E558044020000000000000000048
S214403F4001F0FF01102A2BDB10F0070F08D010F805
S214403F50013B013A8B422DD010F0070F42B3F6D109
S214403F60F0B441EA012141EA014122F007047FF022
S214403F7000070023F0E80256083C85EA010586EA79
S214403F80010685FA47F5A3FA87F586FA47F6A5FAB5
S214403F9087F68EB9EED1F0BC01F0FF0102F00702C1
S214403FA032B110F8013B013A83EA010313B1F8D16C
S214403FB00020704701387047002D06BF354603384D
S214403FC0073815F0010F07D1013015F4807F02BF86
S214403FD0013015F4C03F0130F0BC0138704700BFD7
S214403FE08842F0B50DD98B1898420AD28118002A1B
S214403FF051D09A1A13F8014D01F8014D9342F9D168
S214404000F0BD0F2A48D941EA00039B0746D100F18C
S214404010100401F11003154653F8106C44F8106C68
S21440402053F80C6C44F80C6C53F8086C44F8086C65
S214404030103D53F8046C44F8046C0F2D03F1100344
S21440404004F11004E8D8A2F1100323F00F0302F0A5
S2144040500F0E1033BEF1030F1944034421D91E1F1F
S2144040600D467446043C55F8047B46F8047F032C02
S214404070F8D8AEF1040424F0030404342344214465
S21440408002F0030262B1013B0A4411F8014B03F807
S214404090014F8A42F9D1F0BD0346F3E70346F2E703
S2144040A0F0BD7246EEE700BF704700BF704700BFE6
S2144040B02DE9F04F174683B0002900F0C1800E4628
S2144040C0814607F10B05FFF7EFFF56F804EC162D77
S2144040D02EF00304A6F1080840D810221546AF4239
S2144040E041D8944275DAC94B996808EB0400884277
S2144040F0416800F0D98021F0010303445B68DB0788
S2144041007DD51EF0010F35D039464846FFF75CFC9A
S2144041100746E0B156F8043C23F001034344A0F1BF
S21440412008029A4200F04481221F242A00F231817C
S214404130132A00F20481034632461168196051681A
S214404140596092689A6031464846FFF723F94846D8
S214404150FFF7ACFF384603B0BDE8F08F25F0070503
S214404160002D2A46BBDA0C230020C9F8003003B0E5
S214404170BDE8F08F56F8083CC3EB080ADAF804307E
S21440418023F0030C04EB0C039342BDDB5746DAF8EE
S2144041900C1057F8080F221F242AC160886000F2CE
S2144041A01781132A40F212813168CAF808107168E4
S2144041B0CAF80C101B2A00F22B8108360AF11002AE
S2144041C03168116071685160B16891603E461C4626
S2144041D0D046631B0F2B1DD8D8F8043003F00103DC
S2144041E023434444C8F80430636843F001036360E3
S2144041F04846FFF75BFF304603B0BDE8F08F21F03E
S21440420003012144914221DBC36882680C46D36097
S2144042109A60DEE7D8F8042008EB050102F00102B8
S214404220154343F001020B44C8F804504A605A68EC
S21440423042F0010208315A604846FFF7ABF8D7E72C
S214404240114603B0BDE8F04FFFF7BEBB1EF0010FAE
S2144042507FF45AAF56F8083CC3EB080ADAF8043045
S21440426023F0030C01EB0C0E96458BDBC36882688B
S2144042705746D3609A6057F8081FDAF80C30CB6080
S214404280221F242A996000F29980132A62D9336843
S214404290CAF808307368CAF80C301B2A00F2A080AF
S2144042A008360AF1100356E021F0030BA34405F14B
S2144042B01000834559DA1EF0010F7FF425AF56F8FB
S2144042C0081CC1EB080ADAF8041021F0030CE3449A
S2144042D058453FF757AF5746DAF80C1057F8080FCF
S2144042E0221F242AC160886000F2B480132A40F25C
S2144042F0A5803168CAF808107168CAF80C101B2AE5
S21440430000F2AF8008360AF1100231681160716819
S2144043105160B16891600AEB0501C5EB0B0242F0B3
S214404320010299604A60DAF8043003F001031D4345
S2144043304846CAF80450FFF7B9FE38465CE733688B
S2144043400360736843601B2A27D800F1080306F110
S2144043500802F2E63B4632681A6072685A60B268F3
S2144043609A603E467446D04633E708EB0501C5EBF7
S2144043700B0B4BF0010299604A6056F8043C03F080
S21440438001031D43484646F8045CFFF78FFE30465F
S21440439032E73146FFF724FED5E6B3688360F3681C
S2144043A0C360242A28D000F1100306F11002C4E6A8
S2144043B050F8043C23F003031C440AE731463846D1
S2144043C07446D046FFF70CFE3E4602E73A46F7E60E
S2144043D0314638461C46D046FFF702FE3E46F8E6D3
S2144043E0B368CAF81030F368CAF81430242A1BD0D1
S2144043F010360AF11803AEE7336903617369436107
S21440440006F1180200F1180397E600BF5804402052
S214404410B168CAF81010F168CAF81410242A0FD0F0
S21440442010360AF11802CBE63369CAF818307369B9
S214404430CAF81C3018360AF120038CE73A4664E77F
S2144044403269CAF818207269CAF81C2018360AF170
S2144044502002B5E6314638460193FFF7C1FD019B81
S21440446059E7B168CAF81010F168CAF81410242A3F
S21440447003D010360AF1180247E73269CAF8182006
S2144044807269CAF81C2018360AF120023DE700BFC0
S21440449038B5074C0023054608462360FDF78EF9DD
S2144044A0431C00D038BD2368002BFBD02B6038BDA2
S2144044B0100D402010B50C46B1F90E1000F034FA3D
S2144044C0002803DB236D0344236510BDA38923F432
S2144044D08053A38110BD00BF2DE9F0411646B1F9C7
S2144044E00C201F46D3050C46054607D5002202235E
S2144044F0B1F90E1000F002FAB4F90C20B4F90E101F
S21440450022F48052A2813B4632462846BDE8F0411E
S21440451000F012B910B50C46B1F90E1000F0EEF9E5
S214404520A389421C0EBF23F4805343F48053206576
S214404530A38110BDB1F90E1000F066B9000000006E
S21440454090F800F06DE9024520F007016FF0000C8E
S21440455010F0070491F820F040F049804FF0000436
S2144045606FF00700D1E9002391F840F000F1080011
S21440457082FA4CF2A4FA8CF283FA4CF3A2FA8CF349
S2144045804BBBD1E9022382FA4CF200F10800A4FAB0
S2144045908CF283FA4CF3A2FA8CF3E3B9D1E9042304
S2144045A082FA4CF200F10800A4FA8CF283FA4CF33B
S2144045B0A2FA8CF37BB9D1E9062301F1200182FAF5
S2144045C04CF200F10800A4FA8CF283FA4CF3A2FAFB
S2144045D08CF3002BC6D0002A04BF04301A4612BA09
S2144045E0B2FA82F2FDE8024500EBD2007047D1E90C
S2144045F0002304F00305C4F100004FEAC50514F09B
S214404600040F91F840F00CFA05F562EA05021CBF6B
S21440461063EA050362464FF00004A9E7F8B50E4684
S2144046201446074610B1836B002B4AD0B4F90C20D1
S214404630A369A36091B2080738D52369002B35D00B
S2144046408904F5B215D522686169D31A8B421CDA03
S2144046500133A168501C0139A16020601670626960
S2144046609A421AD0A389DB0701D50A2D15D02846D1
S214404670F8BD616E42F4005221F40051A2812268D6
S21440468061666169D31A8B42E2DB21463846FEF703
S21440469023FD40B922680123DBE721463846FEF772
S2144046A01BFD0028E3D04FF0FF30F8BD21463846CA
S2144046B0FEF7FAFB0028F6D1B4F90C20236991B234
S2144046C0BEE7FEF79DFDB1E72DE9F041054686B011
S2144046D01E460C46A1B1104B1746D3F80080FFF794
S2144046E0EDF8009603463A4621462846C047431C06
S2144046F003D100228A2332602B6006B0BDE8F081E9
S214404700054B1F68FFF7DAF800960346224603A9D2
S2144047102846B847EBE700BF6808402021B1FF2A8B
S21440472004D80A7001207047084670478A23036001
S2144047304FF0FF30704700BF70B50D46084C11462D
S21440474006461A46284600232360FBF743FE431CD2
S21440475000D070BD2368002BFBD0336070BD00BF17
S214404760100D40202DE9F047254C2568D5F84841E6
S2144047700646884692469946C4B360681F2817DCAA
S214404780431C76B104EB80050122C5F888A0D4F816
S214404790881182401143022EC4F88811C5F808914A
S2144047A01ED00230636044F820800020BDE8F087C9
S2144047B0144B03B34FF4C870FFF7FEF80446D0B16D
S2144047C0D5F84831002780E88800C5F84841384683
S2144047D00123C4F88871C4F88C71002EE1D0D1E76B
S2144047E0D4F88C110A43C4F88C21DAE705F5A67490
S2144047F0C5F84841C1E74FF0FF30BDE8F08700BF3D
S214404800A0C54000B939400038B5074C00230546DE
S21440481008462360FCF7ECFF431C00D038BD2368F5
S214404820002BFBD02B6038BD100D402000293DD01A
S21440483070B505460C4608B1836B7BB3B4F90C30B3
S2144048400BB9002070BD21462846FEF7A1FBE36A5F
S214404850064633B1E169284698470028B8BF4FF06E
S214404860FF36A3891B061CD4216B41B104F14003DB
S214404870994202D02846FEF78DFD00232363616CE3
S21440488021B12846FEF786FD00236364FEF7BEFC92
S2144048900023A381FEF7BCFC304670BDFEF7B0FC9B
S2144048A0CCE721692846FEF775FDDDE70020704716
S2144048B038B50B46074C054611461846002323607C
S2144048C0FCF79AFF431C00D038BD2368002BFBD072
S2144048D02B6038BD100D402038B5074C00230546E8
S2144048E008462360FCF78EFF431C00D038BD236883
S2144048F0002BFBD02B6038BD100D402070B50D4608
S214404900084C114606461A46284600232360FCF704
S2144049107BFF431C00D070BD2368002BFBD0336068
S21440492070BD00BF100D402070B50D46084C1146B6
S21440493006461A46284600232360FBF72DFD431CF7
S21440494000D070BD2368002BFBD0336070BD00BF25
S214404950100D402053B94AB9002908BF00281CBF93
S2144049604FF0FF314FF0FF3000F07EB9ADF1080C4C
S2144049706DE904CE00F006F8DDF804E0DDE9022338
S21440498004B070472DE9F0478C460E460446089D15
S214404990002B50D18A4217466CD9B2FA82FEBEF13D
S2144049A0000F0BD0CEF1200420FA04F401FA0EF6E4
S2144049B044EA060C02FA0EF700FA0EF44FEA1749DC
S2144049C0220CBCFBF9F01FFA87F809FB10C642EA36
S2144049D0064600FB08F3B34209D9F61900F1FF3248
S2144049E080F02281B34240F21F8102383E44F61ADC
S2144049F0A2B2B6FBF9F309FB136642EA064403FB90
S214404A0008F8A04509D9E41903F1FF3280F00A817D
S214404A10A04540F20781023B3C44C8EB040443EA0D
S214404A2000400021002D62D024FA0EF400232C60B2
S214404A306B60BDE8F0878B4207D9002D55D000212A
S214404A4085E841000846BDE8F087B3FA83F10029BF
S214404A5040F09080B34202D3824200F2F880841A3B
S214404A6066EB03060120B446002D40D085E81010C2
S214404A70BDE8F08712B90127B7FBF2F7B7FA87FE11
S214404A80BEF1000F35D1F31B4FEA17481FFA87FCDB
S214404A900121B3FBF8F0220C08FB103642EA06462A
S214404AA00CFB00F3B34207D9F61900F1FF3202D2ED
S214404AB0B34200F2CE801046F61AA2B2B6FBF8F326
S214404AC008FB136642EA06440CFB03FCA44507D9E0
S214404AD0E41903F1FF3202D2A44500F2B580134632
S214404AE0CCEB040443EA00409CE729462846BDE850
S214404AF0F087CEF1200106FA0EF307FA0EF720FAF9
S214404B0001F94FEA1748CE4049EA0309B6FBF8FADE
S214404B104FEA194408FB1A661FFA87FC44EA064324
S214404B200AFB0CF29A4200FA0EF40AD9DB190AF193
S214404B30FF3180F087809A4240F28480AAF1020AD0
S214404B403B449B1A1FFA89F9B3FBF8F108FB113373
S214404B5049EA034301FB0CF69E4207D9DB1901F1F3
S214404B60FF326BD29E4269D902393B449B1B41EAD5
S214404B700A418EE7C1F1200E22FA0EF48B40234301
S214404B8020FA0EF706FA01F44FEA134C26FA0EF610
S214404B903C43B6FBFCF9270C0CFB19661FFA83F85E
S214404BA047EA064609FB08F7B74202FA01F200FA5E
S214404BB001FA08D9F61809F1FF3041D2B7423FD979
S214404BC0A9F102091E44F61BA0B2B6FBFCF40CFB8E
S214404BD0146640EA064704FB08F8B84507D9FF18AC
S214404BE004F1FF3028D2B84526D9023C1F4444EA97
S214404BF00940C8EB0707A0FB02894F4544464E468E
S214404C0014D329D065B3BAEB040367EB060707FA5B
S214404C100EFECB40CF404EEA030385E888000021D5
S214404C20BDE8F0871346F8E61046E0E6B8EB020427
S214404C3069EB03060138E5E70446D8E7114695E7F1
S214404C408146C0E78A467CE7023B3C4448E7084644
S214404C500AE702383E442FE7C245E7D33E46D1E74F
S214404C602946BDE8F08700BF704700BF000000003F
S214404C7000000000000000000000000000000000EF
S214404C800000000000000000FFCCFFCC0000000049
S214404C900000000000000000F000F00000000000EF
S214404CA0F000F000000000000CC00CC0FFFCFFFC51
S214404CB00CC00CC0FFFCFFFC0CC00CC00C601E708F
S214404CC03F303330FFFCFFFC333033F039E018C060
S214404CD06000F00CF03C60F003C00F003C18F03C65
S214404CE0C03C00183CF07FF8C31CC78CCFCCDCEC33
S214404CF07878303000FC00CC000000000000440013
S214404D00EC00F8007000000000000000000000000A
S214404D100FC03FF078786018C00CC00C0000000050
S214404D2000000000C00CC00C601878783FF00FC040
S214404D30000000000C600EE007C003803FF83FF81C
S214404D40038007C00EE00C6003000300030003006E
S214404D503FF03FF00300030003000300004400EC74
S214404D6000F8007000000000000000000000000096
S214404D7003000300030003000300030003000300D6
S214404D80030003000018003C003C00180000000030
S214404D9000000000000000000000000C003C00F096
S214404DA003C00F003C00F000C00000003FF07FF85A
S214404DB0E0FCC1CCC38CC70CCE0CFC1C7FF83FF08B
S214404DC000000000300C700CFFFCFFFC000C000CD8
S214404DD000000000300C701CE03CC07CC0ECC1CC35
S214404DE0C38CE70C7E0C3C0C30307038E01CC00C9A
S214404DF0C00CC30CC30CE31C7FF83CF003C007C0D8
S214404E000EC01CC038C070C0FFFCFFFC00C000C015
S214404E10FC30FC38CC1CCC0CCC0CCC0CCC0CCE1CBB
S214404E20C7F8C3F03FF07FF8E31CC30CC30CC30CB9
S214404E30C30CE39C71F830F0C000C000C000C00056
S214404E40C3FCC7FCCE00DC00F800F0003CF07FF866
S214404E50E79CC30CC30CC30CC30CE79C7FF83CF028
S214404E603C007E00E70CC30CC31CC338C370E7E0AD
S214404E707FC03F8000000000000018603CF03CF01F
S214404E801860000000000000000000000000184409
S214404E903CEC3CF8187000000000000000000300E6
S214404EA007800FC01CE038707038E01CC00C000053
S214404EB00CC00CC00CC00CC00CC00CC00CC00CC04D
S214404EC00CC00CC00000C00CE01C703838701CE0F1
S214404ED00FC007800300000030007000E000C000F4
S214404EE0C1ECC3ECC300E6007E003C0030F071F835
S214404EF0E39CC30CC3FCC3FCC00CE01C7FF83FF033
S214404F003FFC7FFCE0C0C0C0C0C0C0C0C0C0E0C066
S214404F107FFC3FFCFFFCFFFCC30CC30CC30CC30C64
S214404F20C30CE79C7FF83CF03FF07FF8E01CC00CD9
S214404F30C00CC00CC00CE01C70383030FFFCFFFCCE
S214404F40C00CC00CC00CC00CC00CE01C7FF83FF07E
S214404F50FFFCFFFCC30CC30CC30CC30CC30CC30C3C
S214404F60C00CC00CFFFCFFFCC300C300C300C30062
S214404F70C300C300C000C0003FF07FF8E01CC00C78
S214404F80C00CC30CC30CE31C73F833F0FFFCFFFCEF
S214404F90030003000300030003000300FFFCFFFCC4
S214404FA000000000C00CC00CFFFCFFFCC00CC00C96
S214404FB00000000000300038C01CC00CC00CC01CF4
S214404FC0FFF8FFF0C000C000FFFCFFFC0780078032
S214404FD00FC01CE038707038E01CC00CFFFCFFFCB3
S214404FE0000C000C000C000C000C000C000C000C1C
S214404FF0FFFCFFFC700038001F001F0038007000E8
S214405000FFFCFFFCFFFCFFFC1C000E0007000380BB
S21440501001C000E0FFFCFFFC3FF07FF8E01CC00C46
S214405020C00CC00CC00CE01C7FF83FF0FFFCFFFC3F
S214405030C300C300C300C300C300E7007E003C00BB
S2144050403FF07FF8E01CC00CC0CCC0ECC07CE03821
S2144050507FFC3FECFFFCFFFCC300C380C380C3C0A3
S214405060C3C0E7707E3C3C1C3C187E1CE70CC30C5F
S214405070C30CC30CC30CC39CE1F860F0C000C00076
S214405080C000C000FFFCFFFCC000C000C000C00065
S214405090FFF0FFF8001C000C000C000C000C001C7D
S2144050A0FFF8FFF0FFC0FFE000700038001C001C57
S2144050B000380070FFE0FFC0FFF0FFF8001C003C27
S2144050C000F800F8003C001CFFF8FFF0F03CF87CCD
S2144050D01CE00FC0078007800FC01CE0F87CF03C47
S2144050E0FC00FE000700038001FC01FC0380070073
S2144050F0FE00FC00C03CC07CC0ECC1CCC38CC70CDE
S214405100CE0CDC0CF80CF00C00000000FFFCFFFCA2
S214405110C00CC00CC00C0000000000003000300086
S2144051200C000C000300030000C000C0003000303C
S21440513000000000C00CC00CC00CFFFCFFFC0000D0
S214405140000000000C001C0038007000E000E0008A
S214405150700038001C000C00000C000C000C000C0A
S214405160000C000C000C000C000C000C00000000B2
S214405170C000E0007000380018000000000000008A
S214405180003006780EFC0CCC0CCC0CCC0CCC0ECCE8
S21440519007FC03F8FFFCFFFC030C030C030C030C9A
S2144051A0030C039C01F800F003F007F80E1C0C0CEF
S2144051B00C0C0C0C0C0C0E1C0738033000F001F8DD
S2144051C0039C030C030C030C030C030CFFFCFFFCBA
S2144051D003F007F80EDC0CCC0CCC0CCC0CCC0EDC64
S2144051E007D80390000003003FFC7FFCE300E30089
S2144051F070003000000000000318079C0FCC0CCC59
S2144052000CCC0CCC0CCC0CDC0FF807F0FFFCFFFCF5
S2144052100300030003000300038001FC00FC0000C1
S21440522000000000000000001BFC1BFC000000000B
S21440523000000000000000300038001C000C000C8D
S214405240001CCFF8CFF000000000FFFCFFFC00E0A1
S21440525001E003F007380E1C0C0C000000000000B4
S214405260C00CC00CFFFCFFFC000C000C0000000053
S2144052700FFC0FFC0E00070003C003C007000E0023
S2144052800FFC0FFC0FFC0FFC030007000E000C0089
S2144052900C000E0007FC03FC03F007F80E1C0C0C79
S2144052A00C0C0C0C0C0C0E1C07F803F00FFC0FFC3F
S2144052B00CC00CC00CC00CC00CC00FC00780030054
S2144052C0030007800FC00CC00CC00CC00CC00CC044
S2144052D00FFC0FFC0FFC0FFC038007000E000C00B9
S2144052E00C000E00070003000318079C0FCC0CCCE4
S2144052F00CCC0CCC0CCC0CFC0E78063000000C0011
S2144053000C00FFF0FFF80C1C0C1C0C380C30000096
S2144053100FF00FF8001C000C000C000C000C001CDA
S2144053200FF80FF00FC00FE000700038001C001C94
S214405330003800700FE00FC00FF00FF8001C001C84
S21440534000F800F8001C001C0FF80FF00C0C0E1CA8
S214405350073803F001E001E003F007380E1C0C0CA0
S2144053600C000E00070C039C01F801F003800700B8
S2144053700E000C000C0C0C1C0C3C0C7C0CEC0DCCED
S2144053800F8C0F0C0E0C0C0C0000030007803FF037
S2144053907CF8E01CC00CC00CC00C0000030C030CD6
S2144053A03FFC7FFCE30CC30CC00CE00C700C300CD4
S2144053B00000C00CC00CC00CE01C7CF83FF007801E
S2144053C003000000C000C000C000C000C000C00015
S2144053D0C000C000C000C000FFFCFFFCFFFCFFFC9C
S2144053E0FFFCFFFCFFFCFFFCFFFCFFFC2D2D2053C9
S2144053F0414D453730204C43442044454D4F202DA9
S2144054002D0D0A2D2D2053414D4537302D58504CEB
S21440541044202D2D0D0A2D2D20436F6D70696C652F
S214405420643A204D61792031302032303137203196
S214405430343A33313A3532202D2D0D0A0000000023
S214405440494E54454C4C4947454E5420425245419E
S2144054505448414C595A455200000000FFD8FFE0DE
S21440546000104A46494600010100000100010000C4
S214405470FFDB00840005030402020202020202026D
S2144054800202060702080707070706020209020685
S21440549005060606060505070A100B07080E090549
S2144054A0050D150C0E1111131313070B16181612B3
S2144054B01810121312010505050706070F08080FF6
S2144054C01F1512151F1D1F1C1C1D1F1E18181F1CE4
S2144054D01C1E171A1C171C1C1D1C171F1C171C14DF
S2144054E01C171C151C1C1C1C141C1C1414141414F3
S2144054F0141414141414FFC0001108038406400347
S214405500012200021101031101FFC4001C0001002A
S2144055100202030100000000000000000000000737
S21440552008010204050603FFC400611001000102E1
S2144055300302040E0D060B060307050000010203D6
S2144055400405060711122131910813141617374126
S214405550515356749394B43655576171727381B1F2
S214405560B3D1D2D31522335492D4323438437583D0
S21440557084A1B2B5C21823425262C124356327447F
S21440558064A4C4E1F02526454765FFC4001C01011C
S21440559000020301010100000000000000000000BE
S2144055A00607010405080302FFC4003E110100017E
S2144055B0020302080C06020203010000000001027A
S2144055C003040511063112213551717291B107134A
S2144055D014164152536181A1C1D117323334A2E12E
S2144055E01522246223254342FFDA000C0301000201
S2144055F0110311003F00A64000000000000000001C
S2144056000000000000000000000000000000000055
S2144056100000000000000000000000000000000045
S2144056200000000000000000000000000000000035
S2144056300000000000000000000000000000000025
S21440641001C7DE00038FBC0000000071F78000005B
S21440642038FBC00000000000000000000000000034
S214406430000000001C7DE0000000000000003E6000
S21440644000003E63E6000000000000000000000080
S21440645000000000000000000000000000000000F7
S2144064600000000000000000000038FBC0000007ED
S214406470CC0000071F78E3EF480000000000000053
S21440648000000000000000000000000000000000C7
S21440649000007CC00000000000000000000000007B
S2144064A007CC7CC000001C7DE0000000000000001F
S2144064B00000000000000000000000000000000097
S2144064C00019A2385728A7BF34FD2C36B7FA5B5FB1
S2144064D00D1F484AC5E9AD8B6C9B51E89D1F9F66D2
S2144064E0399EB6A730C4E1321BD73817B0F6EC75E4
S2144064F065FC3D176B8A22AB13314FE7CEEDF33F79
S2144065000CBB0EC13B19DDFF0099EBBF3F85FDD9A3
S214406510EEB42F16CB766BFD1BA3BD4ACBB953F812
S214406520BDA0CC68BF5D34DC9D2267BD4263F6A744
S21440653036B78AB94517A74899EF459D827633BA4C
S21440654063F29EBBF3F85DFEACF07B6AD9BE83D89F
S214406550EE8EC8F3DD2B8ED4B89C5DDC44DAAA2FD1
S214406560DCB38AB1D4FD2ABAF7C45BB54CF0B7D3D6
S2144065701DD58F447D1471BF667A6623F5D8F56BBA
S214406580ADEC8B3BC76231F6EDDCB933133C71F0B2
S21440659074B66B68F32C56676ACDEBB334CCF1C750
S2144065A0C255AC05A4BA403BB00F4FB33C9329DA72
S2144065B026D3B4C690CF2EE36CE5588AB1515CDA48
S2144065C09A6CE3781459B95C702AAE9988E3A63978
S2144065D06253B7608D8CC44FFF00A9EBC9FEBF0B5A
S2144065E0FBB21CD8671EDF367F31E1333F56BAB662
S2144065F0CAFF006B335C5E0F1345162B9A62635FCF
S2144066009CAAEDB9CEF1D97E368B786B934C4D3A39
S214406610E9EFD65167609D8C7B65AEBCFE17F7737D
S214406620B04EC63DB2D75E7F0BFBB253115F3933D7
S2144066302F6B284F9DB9C7B69F929FED674EE49B40
S2144066402CDA8675A3F4F62331C46536A8CA2AA682
S2144066506F5545FC670AED8A2E55C29A2988E5AAE9
S2144066607B8F23C5C5F3A46E88A89A76F5A8EA98CA
S214406670DF4CDAD37FDD83B48EA374D33C51DCE6A3
S2144066805BB965DAAF612DDCAE7599A6267B17B689
S2144066904D7ABBF80B376E4EB54D31333CF3A341C4
